{
  "contractName": "ReceiptNFT",
  "abi": [
    {
      "inputs": [],
      "stateMutability": "nonpayable",
      "type": "constructor"
    },
    {
      "anonymous": false,
      "inputs": [
        {
          "indexed": true,
          "internalType": "address",
          "name": "from",
          "type": "address"
        },
        {
          "indexed": true,
          "internalType": "address",
          "name": "to",
          "type": "address"
        },
        {
          "indexed": true,
          "internalType": "uint256",
          "name": "tokenId",
          "type": "uint256"
        }
      ],
      "name": "Transfer",
      "type": "event"
    },
    {
      "inputs": [
        {
          "internalType": "address",
          "name": "account",
          "type": "address"
        }
      ],
      "name": "balanceOf",
      "outputs": [
        {
          "internalType": "uint256",
          "name": "",
          "type": "uint256"
        }
      ],
      "stateMutability": "view",
      "type": "function"
    },
    {
      "inputs": [
        {
          "internalType": "address",
          "name": "to",
          "type": "address"
        },
        {
          "internalType": "uint256",
          "name": "tokenId",
          "type": "uint256"
        },
        {
          "internalType": "string",
          "name": "uri",
          "type": "string"
        }
      ],
      "name": "mint",
      "outputs": [],
      "stateMutability": "nonpayable",
      "type": "function"
    },
    {
      "inputs": [],
      "name": "name",
      "outputs": [
        {
          "internalType": "string",
          "name": "",
          "type": "string"
        }
      ],
      "stateMutability": "view",
      "type": "function"
    },
    {
      "inputs": [],
      "name": "owner",
      "outputs": [
        {
          "internalType": "address",
          "name": "",
          "type": "address"
        }
      ],
      "stateMutability": "view",
      "type": "function"
    },
    {
      "inputs": [
        {
          "internalType": "uint256",
          "name": "tokenId",
          "type": "uint256"
        }
      ],
      "name": "ownerOf",
      "outputs": [
        {
          "internalType": "address",
          "name": "",
          "type": "address"
        }
      ],
      "stateMutability": "view",
      "type": "function"
    },
    {
      "inputs": [],
      "name": "symbol",
      "outputs": [
        {
          "internalType": "string",
          "name": "",
          "type": "string"
        }
      ],
      "stateMutability": "view",
      "type": "function"
    },
    {
      "inputs": [
        {
          "internalType": "uint256",
          "name": "tokenId",
          "type": "uint256"
        }
      ],
      "name": "tokenURI",
      "outputs": [
        {
          "internalType": "string",
          "name": "",
          "type": "string"
        }
      ],
      "stateMutability": "view",
      "type": "function"
    }
  ],
  "bytecode": "0x60806040526040518060400160405280600a81526020017f526563656970744e465400000000000000000000000000000000000000000000815250600090805190602001906200005192919062000111565b506040518060400160405280600481526020017f5243505400000000000000000000000000000000000000000000000000000000815250600190805190602001906200009f92919062000111565b50348015620000ad57600080fd5b50d38015620000bb57600080fd5b50d28015620000c957600080fd5b5033600260006101000a81548173ffffffffffffffffffffffffffffffffffffffff021916908373ffffffffffffffffffffffffffffffffffffffff16021790555062000226565b8280546200011f90620001c1565b90600052602060002090601f0160209004810192826200014357600085556200018f565b82601f106200015e57805160ff19168380011785556200018f565b828001600101855582156200018f579182015b828111156200018e57825182559160200191906001019062000171565b5b5090506200019e9190620001a2565b5090565b5b80821115620001bd576000816000905550600101620001a3565b5090565b60006002820490506001821680620001da57607f821691505b60208210811415620001f157620001f0620001f7565b5b50919050565b7f4e487b7100000000000000000000000000000000000000000000000000000000600052602260045260246000fd5b610fba80620002366000396000f3fe608060405234801561001057600080fd5b50d3801561001d57600080fd5b50d2801561002a57600080fd5b50600436106100975760003560e01c80638da5cb5b116100755780638da5cb5b1461011a57806395d89b4114610138578063c87b56dd14610156578063d3fc98641461018657610097565b806306fdde031461009c5780636352211e146100ba57806370a08231146100ea575b600080fd5b6100a46101a2565b6040516100b19190610b79565b60405180910390f35b6100d460048036038101906100cf9190610a4e565b610230565b6040516100e19190610b5e565b60405180910390f35b61010460048036038101906100ff91906109b2565b6102e2565b6040516101119190610c1b565b60405180910390f35b61012261039a565b60405161012f9190610b5e565b60405180910390f35b6101406103c0565b60405161014d9190610b79565b60405180910390f35b610170600480360381019061016b9190610a4e565b61044e565b60405161017d9190610b79565b60405180910390f35b6101a0600480360381019061019b91906109df565b610596565b005b600080546101af90610d9d565b80601f01602080910402602001604051908101604052809291908181526020018280546101db90610d9d565b80156102285780601f106101fd57610100808354040283529160200191610228565b820191906000526020600020905b81548152906001019060200180831161020b57829003601f168201915b505050505081565b6000806003600084815260200190815260200160002060009054906101000a900473ffffffffffffffffffffffffffffffffffffffff169050600073ffffffffffffffffffffffffffffffffffffffff168173ffffffffffffffffffffffffffffffffffffffff1614156102d9576040517f08c379a00000000000000000000000000000000000000000000000000000000081526004016102d090610bdb565b60405180910390fd5b80915050919050565b60008073ffffffffffffffffffffffffffffffffffffffff168273ffffffffffffffffffffffffffffffffffffffff161415610353576040517f08c379a000000000000000000000000000000000000000000000000000000000815260040161034a90610b9b565b60405180910390fd5b600460008373ffffffffffffffffffffffffffffffffffffffff1673ffffffffffffffffffffffffffffffffffffffff168152602001908152602001600020549050919050565b600260009054906101000a900473ffffffffffffffffffffffffffffffffffffffff1681565b600180546103cd90610d9d565b80601f01602080910402602001604051908101604052809291908181526020018280546103f990610d9d565b80156104465780601f1061041b57610100808354040283529160200191610446565b820191906000526020600020905b81548152906001019060200180831161042957829003601f168201915b505050505081565b6060600073ffffffffffffffffffffffffffffffffffffffff166003600084815260200190815260200160002060009054906101000a900473ffffffffffffffffffffffffffffffffffffffff1673ffffffffffffffffffffffffffffffffffffffff1614156104f3576040517f08c379a00000000000000000000000000000000000000000000000000000000081526004016104ea90610bdb565b60405180910390fd5b60056000838152602001908152602001600020805461051190610d9d565b80601f016020809104026020016040519081016040528092919081815260200182805461053d90610d9d565b801561058a5780601f1061055f5761010080835404028352916020019161058a565b820191906000526020600020905b81548152906001019060200180831161056d57829003601f168201915b50505050509050919050565b600260009054906101000a900473ffffffffffffffffffffffffffffffffffffffff1673ffffffffffffffffffffffffffffffffffffffff163373ffffffffffffffffffffffffffffffffffffffff1614610626576040517f08c379a000000000000000000000000000000000000000000000000000000000815260040161061d90610bfb565b60405180910390fd5b600073ffffffffffffffffffffffffffffffffffffffff168373ffffffffffffffffffffffffffffffffffffffff161415610696576040517f08c379a000000000000000000000000000000000000000000000000000000000815260040161068d90610b9b565b60405180910390fd5b600073ffffffffffffffffffffffffffffffffffffffff166003600084815260200190815260200160002060009054906101000a900473ffffffffffffffffffffffffffffffffffffffff1673ffffffffffffffffffffffffffffffffffffffff1614610738576040517f08c379a000000000000000000000000000000000000000000000000000000000815260040161072f90610bbb565b60405180910390fd5b826003600084815260200190815260200160002060006101000a81548173ffffffffffffffffffffffffffffffffffffffff021916908373ffffffffffffffffffffffffffffffffffffffff1602179055506001600460008573ffffffffffffffffffffffffffffffffffffffff1673ffffffffffffffffffffffffffffffffffffffff16815260200190815260200160002060008282546107da9190610ca8565b925050819055508060056000848152602001908152602001600020908051906020019061080892919061086a565b50818373ffffffffffffffffffffffffffffffffffffffff16600073ffffffffffffffffffffffffffffffffffffffff167fddf252ad1be2c89b69c2b068fc378daa952ba7f163c4a11628f55a4df523b3ef60405160405180910390a4505050565b82805461087690610d9d565b90600052602060002090601f01602090048101928261089857600085556108df565b82601f106108b157805160ff19168380011785556108df565b828001600101855582156108df579182015b828111156108de5782518255916020019190600101906108c3565b5b5090506108ec91906108f0565b5090565b5b808211156109095760008160009055506001016108f1565b5090565b600061092061091b84610c5b565b610c36565b90508281526020810184848401111561093c5761093b610e92565b5b610947848285610d5b565b509392505050565b60008135905061095e81610f56565b61096781610cfe565b905092915050565b600082601f83011261098457610983610e8d565b5b813561099484826020860161090d565b91505092915050565b6000813590506109ac81610f6d565b92915050565b6000602082840312156109c8576109c7610e9c565b5b60006109d68482850161094f565b91505092915050565b6000806000606084860312156109f8576109f7610e9c565b5b6000610a068682870161094f565b9350506020610a178682870161099d565b925050604084013567ffffffffffffffff811115610a3857610a37610e97565b5b610a448682870161096f565b9150509250925092565b600060208284031215610a6457610a63610e9c565b5b6000610a728482850161099d565b91505092915050565b610a8481610cfe565b82525050565b6000610a9582610c8c565b610a9f8185610c97565b9350610aaf818560208601610d6a565b610ab881610ea1565b840191505092915050565b6000610ad0600f83610c97565b9150610adb82610eb2565b602082019050919050565b6000610af3601483610c97565b9150610afe82610edb565b602082019050919050565b6000610b16601483610c97565b9150610b2182610f04565b602082019050919050565b6000610b39601283610c97565b9150610b4482610f2d565b602082019050919050565b610b5881610d51565b82525050565b6000602082019050610b736000830184610a7b565b92915050565b60006020820190508181036000830152610b938184610a8a565b905092915050565b60006020820190508181036000830152610bb481610ac3565b9050919050565b60006020820190508181036000830152610bd481610ae6565b9050919050565b60006020820190508181036000830152610bf481610b09565b9050919050565b60006020820190508181036000830152610c1481610b2c565b9050919050565b6000602082019050610c306000830184610b4f565b92915050565b6000610c40610c51565b9050610c4c8282610dcf565b919050565b6000604051905090565b600067ffffffffffffffff821115610c7657610c75610e5e565b5b610c7f82610ea1565b9050602081019050919050565b600081519050919050565b600082825260208201905092915050565b6000610cb382610d51565b9150610cbe83610d51565b9250827fffffffffffffffffffffffffffffffffffffffffffffffffffffffffffffffff03821115610cf357610cf2610e00565b5b828201905092915050565b6000610d0982610d10565b9050919050565b600073ffffffffffffffffffffffffffffffffffffffff82169050919050565b600074ffffffffffffffffffffffffffffffffffffffffff82169050919050565b6000819050919050565b82818337600083830152505050565b60005b83811015610d88578082015181840152602081019050610d6d565b83811115610d97576000848401525b50505050565b60006002820490506001821680610db557607f821691505b60208210811415610dc957610dc8610e2f565b5b50919050565b610dd882610ea1565b810181811067ffffffffffffffff82111715610df757610df6610e5e565b5b80604052505050565b7f4e487b7100000000000000000000000000000000000000000000000000000000600052601160045260246000fd5b7f4e487b7100000000000000000000000000000000000000000000000000000000600052602260045260246000fd5b7f4e487b7100000000000000000000000000000000000000000000000000000000600052604160045260246000fd5b600080fd5b600080fd5b600080fd5b600080fd5b6000601f19601f8301169050919050565b7f496e76616c696420616464726573730000000000000000000000000000000000600082015250565b7f546f6b656e20616c7265616479206d696e746564000000000000000000000000600082015250565b7f546f6b656e20646f6573206e6f74206578697374000000000000000000000000600082015250565b7f4e6f7420636f6e7472616374206f776e65720000000000000000000000000000600082015250565b610f5f81610d30565b8114610f6a57600080fd5b50565b610f7681610d51565b8114610f8157600080fd5b5056fea26474726f6e58221220e88d3cf9127d96d2c570ce29821fc2827d36cab9d7cd482a36e79f3d46123f3964736f6c63430008060033",
  "source": "// SPDX-License-Identifier: MIT\npragma solidity ^0.8.0;\n\ncontract ReceiptNFT {\n    string public name = \"ReceiptNFT\";\n    string public symbol = \"RCPT\";\n\n    address public owner;\n\n    mapping(uint256 => address) private _owners;\n    mapping(address => uint256) private _balances;\n    mapping(uint256 => string) private _tokenURIs;\n\n    event Transfer(address indexed from, address indexed to, uint256 indexed tokenId);\n\n    modifier onlyOwner() {\n        require(msg.sender == owner, \"Not contract owner\");\n        _;\n    }\n\n    constructor() {\n        owner = msg.sender;\n    }\n\n    function balanceOf(address account) public view returns (uint256) {\n        require(account != address(0), \"Invalid address\");\n        return _balances[account];\n    }\n\n    function ownerOf(uint256 tokenId) public view returns (address) {\n        address tokenOwner = _owners[tokenId];\n        require(tokenOwner != address(0), \"Token does not exist\");\n        return tokenOwner;\n    }\n\n    function tokenURI(uint256 tokenId) public view returns (string memory) {\n        require(_owners[tokenId] != address(0), \"Token does not exist\");\n        return _tokenURIs[tokenId];\n    }\n\n    function mint(address to, uint256 tokenId, string memory uri) public onlyOwner {\n        require(to != address(0), \"Invalid address\");\n        require(_owners[tokenId] == address(0), \"Token already minted\");\n\n        _owners[tokenId] = to;\n        _balances[to] += 1;\n        _tokenURIs[tokenId] = uri;\n\n        emit Transfer(address(0), to, tokenId);\n    }\n}",
  "sourcePath": "/Users/hanlee/Downloads/tron/contracts/ReceiptNFT.sol",
  "compiler": {
    "name": "solc",
    "version": "0.8.6+commit.0e36fba0.mod.Emscripten.clang"
  },
  "schemaVersion": "2.0.1",
  "updatedAt": "2026-03-27T04:24:15.471Z"
}